:020000020000FC
:100000000C9419015F935FEF51BB57BBC3980F93DB
:1000100008E3C39AC198C29802BB0E943300C398F8
:100020000E9436000F910E943E000F930EE0C39A8B
:10003000C198C29802BB0E943300C3980E94360048
:100040000F910E943E000F9301E0C39AC198C2989D
:1000500002BB0E943300C3980E9436000F910E9499
:100060003E005F9108950000000008951F931CE377
:100070000E9433001A95E1F71F9108951F9314E130
:100080000E9436001A95E1F71F9108959F9390EF13
:100090009ABB9F9108959F939FE09BBB000099B3EB
:1000A0009F709F30D9F7000099B39F709F30D9F3AC
:1000B00099B39F709F30B9F39FE79BBB99B39F7033
:1000C0009F3001F499B39F70973041F09B3061F0FD
:1000D0009D3081F09E30A1F00C94850091E371E099
:1000E000F92FEEE60C94020192E372E0F92FEEE6AE
:1000F0000C94020193E373E0F92FEEE60C940201F5
:100100009BE2F92FEBE20C9402019FEB9BBB99B3AE
:100110009F709F3001F499B39F70973051F09B30DE
:1001200071F09D3091F09E30B1F00C94B0000C94C1
:10013000020194E374E0F92FEEE60C94020195E3DA
:1001400075E0F92FEEE60C94020196E376E0F92FC4
:10015000EEE60C9402019DE2F92FEDE20C9402010F
:100160009FED9BBB99B39F709F3001F499B39F7033
:10017000973051F09B3071F09D3091F09E30B1F08E
:100180000C94DB000C94020197E377E0F92FEEE684
:100190000C94020198E378E0F92FEEE60C9402014A
:1001A00099E379E0F92FEEE60C9402019EE5F92F30
:1001B000EEE50C9402019FEE9BBB99B39F709F30BC
:1001C00001F499B39F70973041F09B3059F09D3006
:1001D00079F09E3091F00C9402019AE2F92FEAE254
:1001E0000C94020190E370E0F92FEEE60C9402010A
:1001F0009DE3F92FEDE30C94020194E4F92FE4E47C
:100200000C9402019F910895CA958881803071F005
:100210000F93082FC39AC19AC29802BB0E94330061
:10022000C3980E9436000F910C940401C0E6D0E000
:1002300008954F9348E04EBF4DE54DBF4F91C0E646
:10024000D0E00E9423010E9428010E9435010895F8
:1002500020E030E040E050E0CC24DD24EE24FF2418
:100260000E9402000E94460008950E944B000F93D6
:100270000F2FC39AC19AC29802BB0E943300C39841
:100280000E9436000F91EE3699F41F932F923F9201
:100290000F9300E01AE0219F1001319F300C910173
:1002A000270F301F1F912F903F900F910C94350115
:1002B0006F2F44275527CC24DD24EE24FF240E94F1
:1002C0004B000F930F2FC39AC19AC29802BB0E9492
:1002D0003300C3980E9436000F91EE3699F41F93B5
:1002E0002F923F920F9300E01AE0419F1001519F1F
:1002F000300CA101470F501F1F912F903F900F917D
:100300000C945F016B3211F40C9494016A3211F475
:100310000C94E8026D3211F40C94E1036E3511F483
:100320000C94AC040C94E00522248F9322243323F4
:10033000C1F0BAF43095209581E0280F321D2224B7
:100340006901C41AD50AE208F2089601C094D09453
:10035000E094F09481E0C80ED21CE21CF21C0C94D4
:10036000BA0122246901C40ED51EE21CF21C9601BA
:100370000C94BA018F918F9381E0B82E80E089931D
:10038000CC2031F4DD2021F4EE2011F4FF2001F423
:1003900021F480E389930C944A028F932224FF2056
:1003A00081F06AF4F094E094D094C09481E0C80E97
:1003B000D21CE21CF21C2224B22C0C9411020C94CC
:1003C0001102EE2079F062F4E094D094C09481E0C0
:1003D000C80ED21CE21CF21C2224B22C0C94110276
:1003E0000C941102DD2071F05AF4D094C09481E095
:1003F000C80ED21CE21CF21C2224B22C0C94110256
:100400000C941102CC2069F052F4C09481E0C80E23
:10041000D21CE21CF21C2224B22C0C9411020C946B
:1004200011028F91CC2031F4DD2021F4EE2011F463
:10043000FF2001F409F011F40C9445028F9322245B
:1004400081E2582E771888249924AA24CC1CDD1C1C
:10045000EE1CFF1C5A9499F0771C881C991CAA1C4E
:100460008AE0781A82089208A20838F48AE0780EA6
:10047000821C921CA21C8894E9CF0894E7CF8F912C
:1004800080E3780E79920C94120281E0B81611F094
:100490008DE289930E9404018F910E944B000F937B
:1004A00001E0C39AC198C29802BB0E943300C3986E
:1004B0000E9436000F910F9300E8C39AC198C2982A
:1004C00002BB0E943300C3980E9436000F91EE36A3
:1004D000A1F40F930F2FC39AC19AC29802BB0E9436
:1004E0003300C3980E9436000F91272F3327CC2466
:1004F000DD24EE24FF240C943501EE24FF24690151
:1005000022248F9381E0B82E80E08993CC2011F4CF
:10051000DD2001F421F480E389930C94D7028F93BA
:100520002224DD2061F04AF4D094C09481E0C80E0A
:10053000D21C2224B22C0C94AC020C94AC02CC2021
:1005400059F042F4C09481E0C80ED21C2224B22C8F
:100550000C94AC020C94AC028F91CC2011F4DD20F1
:1005600001F409F011F40C94D2028F93222481E15A
:10057000582E77188824CC1CDD1C5A9469F0771CFF
:10058000881C8AE0781A820828F48AE0780E821C97
:100590008894F1CF0894EFCF8F9180E3780E799211
:1005A0000C94AD0281E0B81611F08DE289930E949F
:1005B00004018F910F930F2FC39AC19AC29802BB67
:1005C0000E943300C3980E9436000F910C9458018A
:1005D0008F932224332301F1FAF43095209581E0A2
:1005E000280F321D2224359F7001249F6001349F03
:1005F000D00CE11CF21C529FD00CE11CF21C9601A5
:10060000C094D094E094F09481E0C80ED21CE21C17
:10061000F21C96010C941C032224359F7001249F28
:100620006001349FD00CE11CF21C529FD00CE11CE5
:10063000F21C96010C941C038F918F9381E0B82ECD
:1006400080E08993CC2031F4DD2021F4EE2011F4F8
:10065000FF2001F421F480E389930C94AC038F9381
:100660002224FF2081F06AF4F094E094D094C094A6
:1006700081E0C80ED21CE21CF21C2224B22C0C9485
:1006800073030C947303EE2079F062F4E094D09439
:10069000C09481E0C80ED21CE21CF21C2224B22CB1
:1006A0000C9473030C947303DD2071F05AF4D0940E
:1006B000C09481E0C80ED21CE21CF21C2224B22C91
:1006C0000C9473030C947303CC2069F052F4C0941F
:1006D00081E0C80ED21CE21CF21C2224B22C0C9425
:1006E00073030C9473038F91CC2031F4DD2021F43B
:1006F000EE2011F4FF2001F409F011F40C94A7038B
:100700008F93222481E2582E771888249924AA24D2
:10071000CC1CDD1CEE1CFF1C5A9499F0771C881C25
:10072000991CAA1C8AE0781A82089208A20838F458
:100730008AE0780E821C921CA21C8894E9CF08944F
:10074000E7CF8F9180E3780E79920C94740381E067
:10075000B81611F08DE289930E9404018F910E94D6
:100760004B000F9301E0C39AC198C29802BB0E944C
:100770003300C3980E9436000F910F9300E8C39A8C
:10078000C198C29802BB0E943300C3980E943600F1
:100790000F91EE36A1F40F930F2FC39AC19AC2980E
:1007A00002BB0E943300C3980E9436000F91272F8E
:1007B0003327CC24DD24EE24FF240C9435010C9443
:1007C0007D0222246901C41AD50AE208F2089601C2
:1007D0008F9381E0B82E80E08993CC2031F4DD2026
:1007E00021F4EE2011F4FF2001F421F480E3899339
:1007F0000C9477048F932224FF2081F06AF4F09404
:10080000E094D094C09481E0C80ED21CE21CF21C8B
:100810002224B22C0C943E040C943E04EE2079F079
:1008200062F4E094D094C09481E0C80ED21CE21C23
:10083000F21C2224B22C0C943E040C943E04DD20C5
:1008400071F05AF4D094C09481E0C80ED21CE21C1E
:10085000F21C2224B22C0C943E040C943E04CC20B6
:1008600069F052F4C09481E0C80ED21CE21CF21C64
:100870002224B22C0C943E040C943E048F91CC2084
:1008800031F4DD2021F4EE2011F4FF2001F409F011
:1008900011F40C9472048F93222481E2582E77185D
:1008A00088249924AA24CC1CDD1CEE1CFF1C5A941D
:1008B00099F0771C881C991CAA1C8AE0781A820877
:1008C0009208A20838F48AE0780E821C921CA21CBE
:1008D0008894E9CF0894E7CF8F9180E3780E7992DE
:1008E0000C943F0481E0B81611F08DE289930E94C8
:1008F00004018F910E944B000F9301E0C39AC198AD
:10090000C29802BB0E943300C3980E9436000F9128
:100910000F9300E8C39AC198C29802BB0E943300AB
:10092000C3980E9436000F91EE36A1F40F930F2F5B
:10093000C39AC19AC29802BB0E943300C3980E9416
:1009400036000F91272F3327CC24DD24EE24FF24FB
:100950000C9435010C947D0222248F93442311F4CE
:10096000552301F459F481E0C82E80E0D82E80E0B0
:10097000E82E80E0F82E96010C941B055030D9F536
:100980004130C9F541E050E08F932224332301F137
:10099000FAF43095209581E0280F321D2224359FEE
:1009A0007001249F6001349FD00CE11CF21C529F07
:1009B000D00CE11CF21C9601C094D094E094F09409
:1009C00081E0C80ED21CE21CF21C96010C94F804C3
:1009D0002224359F7001249F6001349FD00CE11CBC
:1009E000F21C529FD00CE11CF21C96010C94F804EE
:1009F0008F910C941B05690181E0481B5209542E0C
:100A0000652EA901552011F4662001F4A1F096018C
:100A10002224359F7001249F6001349FD00CE11C7B
:100A2000F21C529FD00CE11CF21C960181E0581A76
:100A300062080C9402058F918F9381E0B82E80E0BC
:100A40008993CC2031F4DD2021F4EE2011F4FF2035
:100A500001F421F480E389930C94AB058F93222455
:100A6000FF2081F06AF4F094E094D094C09481E087
:100A7000C80ED21CE21CF21C2224B22C0C9472056B
:100A80000C947205EE2079F062F4E094D094C09456
:100A900081E0C80ED21CE21CF21C2224B22C0C9461
:100AA00072050C947205DD2071F05AF4D094C09454
:100AB00081E0C80ED21CE21CF21C2224B22C0C9441
:100AC00072050C947205CC2069F052F4C09481E058
:100AD000C80ED21CE21CF21C2224B22C0C9472050B
:100AE0000C9472058F91CC2031F4DD2021F4EE209E
:100AF00011F4FF2001F409F011F40C94A6058F9372
:100B0000222481E2582E771888249924AA24CC1C08
:100B1000DD1CEE1CFF1C5A9499F0771C881C991C54
:100B2000AA1C8AE0781A82089208A20838F48AE09F
:100B3000780E821C921CA21C8894E9CF0894E7CFFF
:100B40008F9180E3780E79920C94730581E0B8164A
:100B500011F08DE289930E9404018F910E944B0055
:100B60000F9301E0C39AC198C29802BB0E94330060
:100B7000C3980E9436000F910F9300E8C39AC19862
:100B8000C29802BB0E943300C3980E9436000F91A6
:100B9000EE36A1F40F930F2FC39AC19AC29802BBED
:100BA0000E943300C3980E9436000F91272F3327ED
:100BB000CC24DD24EE24FF240C9435010C947D021A
:0A0BC0000E9428010C9435010895ED
:00000001FF
